:100000000C942A000C9447000C9447000C94470071
:100010000C9447000C9447000C9447000C94470044
:100020000C9447000C9447000C9447000C94470034
:100030000C9447000C9447000C9447000C94470024
:100040000C9447000C9447000C9447000C94470014
:100050000C94470011241FBECFE5D8E0DEBFCDBF12
:1000600011E0A8E6B1E001C01D92AA36B107E1F7A0
:1000700011E0A0E6B0E0E4E1FCE102C005900D92E1
:10008000A836B107D9F70E944C0D0C94080E0C94B9
:100090000000EF92FF920F931F937B018C0120E0F1
:1000A00030E040E05FE40E94C50388238CF0C80183
:1000B000B70120E030E040E05FE40E94C1010E940F
:1000C00083049B01AC01205030404040504806C0A2
:1000D000C801B7010E9483049B01AC01B901CA01A8
:1000E0001F910F91FF90EF900895A0E0B0E0EBE733
:1000F000F0E00C94550DDC012B01FA019C9192303B
:1001000008F439C1EB018881823008F433C194309E
:1001100069F4843009F02FC111969C91119789815F
:10012000981709F428C1A0E6B0E025C1843009F48D
:1001300021C18230A9F4923009F01DC19A01AD01AC
:1001400088E0EA010990AE01E90109929E0181501F
:10015000C1F7E201898111969C918923818308C1AD
:10016000923009F407C112962D903C901397EB0141
:100170008A819B811496AD90BD90CD90DC901797AD
:10018000EC80FD800E811F819101281B390BB90184
:1001900037FF04C066277727621B730B6032710537
:1001A0000CF061C0121613066CF537014801062EDB
:1001B00004C096948794779467940A94D2F721E0C8
:1001C00030E040E050E004C0220F331F441F551FB1
:1001D0006A95D2F721503040404050402E213F21B7
:1001E00040235123211531054105510521F021E01E
:1001F00030E040E050E079018A01E628F72808293C
:1002000019293CC0232BD1F1260E371E350146019A
:10021000062E04C096948794779467940A94D2F734
:1002200021E030E040E050E004C0220F331F441FC3
:10023000551F6A95D2F721503040404050402A2146
:100240003B214C215D21211531054105510521F04E
:1002500021E030E040E050E059016A01A628B728CB
:10026000C828D9280BC0821593052CF01C01AA249C
:10027000BB24650103C0EE24FF24870111969C91E5
:10028000D20111968C91981709F445C0992339F041
:10029000A80197012A193B094C095D0906C0A6016E
:1002A00095012E193F09400B510B57FD08C01182D3
:1002B0003382228224833583468357831DC081E0A5
:1002C00081833382228288279927DC01821B930B4A
:1002D000A40BB50B84839583A683B7830DC0220F2F
:1002E000331F441F551F24833583468357838281E0
:1002F000938101979383828324813581468157813D
:10030000DA01C9010197A109B1098F5F9F4FAF4F72
:10031000BF4328F30BC0918333822282EA0CFB1C7B
:100320000C1D1D1DE482F5820683178383E0808304
:10033000248135814681578157FF1AC0C901AA27F8
:1003400097FDA095BA2F81709070A070B0705695EF
:10035000479537952795822B932BA42BB52B848318
:100360009583A683B7838281938101969383828349
:10037000DF0101C0D201CD01CDB7DEB7E2E10C94BF
:10038000710DA0E2B0E0E7ECF1E00C94610D69833F
:100390007A838B839C832D833E834F835887E9E048
:1003A000EE2EF12CEC0EFD1ECE010196B7010E943F
:1003B00074068E010F5E1F4FCE010596B8010E9494
:1003C00074068A8991E089278A8BC701B801AE013A
:1003D000475E5F4F0E9475000E949F05A096E6E071
:1003E0000C947D0DA0E2B0E0E8EFF1E00C94610D1B
:1003F00069837A838B839C832D833E834F835887C5
:10040000F9E0EF2EF12CEC0EFD1ECE010196B701A6
:100410000E9474068E010F5E1F4FCE010596B80133
:100420000E947406C701B801AE01475E5F4F0E948B
:1004300075000E949F05A096E6E00C947D0DA0E259
:10044000B0E0E5E2F2E00C94550D69837A838B838A
:100450009C832D833E834F835887CE010196BE0136
:10046000675F7F4F0E947406CE010596BE016F5EE6
:100470007F4F0E9474069985923088F08989823076
:10048000C8F0943019F4823051F404C0843029F457
:10049000923081F480E690E0C6C0923049F420E0CA
:1004A0009A858A89981321E02A87CE010996BBC0D4
:1004B000823049F420E09A858A89981321E02A8BBA
:1004C000CE014196B0C02D843E844F8458886D88FB
:1004D0007E888F88988CEE24FF248701AA24BB2471
:1004E000650140E050E060E070E0E0E0F0E0C10174
:1004F00081709070892BE9F0E60CF71C081D191D1E
:100500009A01AB012A0D3B1D4C1D5D1D80E090E062
:10051000A0E0B0E0E614F7040805190520F481E036
:1005200090E0A0E0B0E0BA01A901480F591F6A1F8E
:100530007B1FAA0CBB1CCC1CDD1C97FE08C081E0F5
:1005400090E0A0E0B0E0A82AB92ACA2ADB2A3196B6
:10055000E032F10549F0660C771C881C991C569412
:10056000479437942794C3CFFA85EA892B893C892D
:100570008B859C85280F391F2E5F3F4F17C0CA01FE
:1005800081709070892B61F016950795F794E79428
:1005900080E090E0A0E0B0E8E82AF92A0A2B1B2BC3
:1005A00076956795579547952F5F3F4F77FDE7CF36
:1005B0000CC0440F551F661F771F17FD4160EE0CDE
:1005C000FF1C001F111F21503040403090E05907A0
:1005D00090E0690790E4790760F32B8F3C8FDB0193
:1005E000CA018F779070A070B07080349105A1051A
:1005F000B10561F447FD0AC0E114F10401051105DC
:1006000029F0405C5F4F6F4F7F4F40781A8EFE1786
:1006100011F081E08A8F4D8F5E8F6F8F78A383E01A
:10062000898FCE0149960E949F05A096E2E10C9425
:10063000710DA8E1B0E0EFE1F3E00C945D0D69838A
:100640007A838B839C832D833E834F835887B9E0C5
:10065000EB2EF12CEC0EFD1ECE010196B7010E948F
:1006600074068E010F5E1F4FCE010596B8010E94E1
:1006700074062985223008F47EC03989323010F49E
:10068000B8017CC08A859A8989278A87243011F02D
:10069000223031F4231709F06EC060E670E06EC0BE
:1006A000343039F41D861E861F86188A1C861B86E8
:1006B00004C0323021F484E08987B7015FC02B8504
:1006C0003C858B899C89281B390B3C872B87ED84C3
:1006D000FE840F851889AD88BE88CF88D88CEA142F
:1006E000FB040C051D0540F4EE0CFF1C001F111F40
:1006F000215030403C872B8720E030E040E050E044
:1007000080E090E0A0E0B0E460E070E0EA14FB0478
:100710000C051D0540F0282B392B4A2B5B2BEA18C2
:10072000FB080C091D09B695A79597958795EE0CC2
:10073000FF1C001F111F6F5F7F4F6F31710531F775
:10074000DA01C9018F779070A070B0708034910584
:10075000A105B10561F427FD0AC0E114F10401050A
:10076000110529F0205C3F4F4F4F5F4F20782D87B8
:100770003E874F87588BBE01675F7F4FCB010E943A
:100780009F056896EAE00C94790DA8E1B0E0EBECE7
:10079000F3E00C94610D69837A838B839C832D83B2
:1007A0003E834F83588789E0E82EF12CEC0EFD1E26
:1007B000CE010196B7010E9474068E010F5E1F4F95
:1007C000CE010596B8010E9474068985823040F0FA
:1007D0008989823028F0C701B8010E94EC0601C067
:1007E0008FEF6896E6E00C947D0DA8E1B0E0EBEFAA
:1007F000F3E00C94610D69837A838B839C832D8352
:100800003E834F83588789E0E82EF12CEC0EFD1EC5
:10081000CE010196B7010E9474068E010F5E1F4F34
:10082000CE010596B8010E9474068985823040F099
:100830008989823028F0C701B8010E94EC0601C006
:1008400081E06896E6E00C947D0DA8E0B0E0EBE274
:10085000F4E00C945E0D9B01AC0183E08983DA0126
:10086000C9018827B7FD83959927AA27BB27B82EEA
:10087000211531054105510519F482E089833AC0FB
:100880008823A9F0203080E0380780E0480780E81E
:10089000580729F460E070E080E09FEC30C0EE245F
:1008A000FF248701E21AF30A040B150B02C0790139
:1008B0008A018EE1C82ED12CDC82CB82ED82FE82B1
:1008C0000F831887C801B7010E94500501971816B9
:1008D000190684F4082E04C0EE0CFF1C001F111F23
:1008E0000A94D2F7ED82FE820F831887C81AD90ABC
:1008F000DC82CB82BA82CE0101960E949F052896A7
:10090000E9E00C947A0DACE0B0E0E9E8F4E00C9496
:10091000650D69837A838B839C83CE010196BE012A
:100920006B5F7F4F0E9474068D81823061F182304F
:1009300050F1843021F48E81882351F12EC02F8113
:10094000388537FD20C06E812F3131051CF06623BC
:10095000F9F023C08EE190E0821B930B29853A8544
:100960004B855C8504C056954795379527958A95A4
:10097000D2F76623B1F050954095309521953F4FC1
:100980004F4F5F4F0EC020E030E040E050E009C024
:100990002FEF3FEF4FEF5FE704C020E030E040E093
:1009A00050E8B901CA012C96E2E00C94810DA8E050
:1009B000B0E0EDEDF4E00C945D0D7B018C01611570
:1009C00071058105910519F482E0898360C083E097
:1009D00089838EE1C82ED12CDC82CB82ED82FE820F
:1009E0000F831887C801B7010E945005FC01319799
:1009F000F7FF3BC0222733272E1B3F0B570168010F
:100A0000022E04C0D694C794B794A7940A94D2F740
:100A100040E050E060E070E081E090E0A0E0B0E015
:100A200004C0880F991FAA1FBB1F2A95D2F70197F0
:100A3000A109B1098E219F21A023B1230097A1050F
:100A4000B10521F041E050E060E070E04A295B2907
:100A50006C297D294D835E836F8378878EE190E0DA
:100A60008E1B9F0B9C838B8312C0309781F00E2EC0
:100A700004C0EE0CFF1C001F111F0A94D2F7ED8278
:100A8000FE820F831887CE1ADF0ADC82CB821A829D
:100A9000CE0101960E949F052896EAE00C94790DFC
:100AA000EF92FF920F931F937B018C0180E0E81679
:100AB00080E0F80681E0080780E0180788F48FEFEF
:100AC000E816F1040105110531F028F088E090E006
:100AD000A0E0B0E017C080E090E0A0E0B0E012C07D
:100AE00080E0E81680E0F80680E0080781E018075B
:100AF00028F088E190E0A0E0B0E004C080E190E060
:100B0000A0E0B0E020E230E040E050E0281B390BEC
:100B10004A0B5B0B04C016950795F794E7948A95EA
:100B2000D2F7F701E859FF4F8081281B31094109AD
:100B30005109C9011F910F91FF90EF900895DF9225
:100B4000EF92FF920F931F93FC01E480F5800681E2
:100B50001781D1808081823048F480E090E0A0E16C
:100B6000B0E0E82AF92A0A2B1B2BA5C0843009F42F
:100B70009FC0823021F4EE24FF24870105C0E114D8
:100B8000F1040105110519F4E0E0F0E096C062817E
:100B900073819FEF623879070CF05BC022E83FEF6A
:100BA000261B370B2A3131052CF020E030E040E0E5
:100BB00050E02AC0B801A701022E04C076956795BF
:100BC000579547950A94D2F781E090E0A0E0B0E015
:100BD00004C0880F991FAA1FBB1F2A95D2F701973F
:100BE000A109B1098E219F21A023B1230097A1055E
:100BF000B10521F081E090E0A0E0B0E09A01AB0106
:100C0000282B392B4A2B5B2BDA01C9018F77907087
:100C1000A070B07080349105A105B10539F427FFAB
:100C200009C0205C3F4F4F4F5F4F04C0215C3F4FD6
:100C30004F4F5F4FE0E0F0E02030A0E03A07A0E047
:100C40004A07A0E45A0710F0E1E0F0E079018A01D8
:100C500027C06038710564F5FB01E158FF4FD801EA
:100C6000C7018F779070A070B07080349105A10596
:100C7000B10539F4E7FE0DC080E490E0A0E0B0E0FB
:100C800004C08FE390E0A0E0B0E0E80EF91E0A1F78
:100C90001B1F17FF05C016950795F794E79431962B
:100CA00087E016950795F794E7948A95D1F705C0E4
:100CB000EE24FF248701EFEFF0E06E2F67956627A3
:100CC0006795902F9F77D794DD24D7948E2F8695A4
:100CD000492F462B582F5D29B701CA011F910F914B
:100CE000FF90EF90DF900895FC01DB01408151817E
:100CF0002281622F6F7770E0221F2227221F9381AB
:100D0000892F880F822B282F30E0991F9927991F50
:100D100011969C93119721153105A9F5411551059F
:100D20006105710511F482E037C082E89FEF1396E8
:100D30009C938E9312979A01AB0167E0220F331FA9
:100D4000441F551F6A95D1F783E08C930DC0220F85
:100D5000331F441F551F12968D919C911397019735
:100D600013969C938E931297203080E0380780E092
:100D7000480780E4580758F314962D933D934D93FC
:100D80005C93179708952F3F310579F4411551056C
:100D90006105710519F484E08C93089564FF03C024
:100DA00081E08C9312C01C9210C02F5730401396D4
:100DB0003C932E93129783E08C9387E0440F551F4A
:100DC000661F771F8A95D1F7706414964D935D93D3
:100DD0006D937C93179708951F93DC01FB019C9101
:100DE000923008F447C08081823008F443C09430C8
:100DF00051F411961C91843099F58181682F70E02F
:100E0000611B71093FC0843021F0923031F482308F
:100E1000B9F18181882389F12DC011961C91119718
:100E20008230F1F081811817D9F412962D913C91FE
:100E30001397828193818217930794F028173907BB
:100E4000BCF014968D919D910D90BC91A02D2481A4
:100E5000358146815781281739074A075B0718F4FF
:100E6000112341F00AC082179307A407B50740F485
:100E7000112319F061E070E005C06FEF7FEF02C051
:100E800060E070E0CB011F910895DF93CF93CDB761
:100E9000DEB7E3E5F0E01082E2E5F0E01082A3E5E2
:100EA000B0E0E3E5F0E0808185608C93CF91DF9145
:100EB0000895EF92FF920F931F93DF93CF93CDB7D7
:100EC000DEB766970FB6F894DEBF0FBECDBF9E8B20
:100ED0008D8B198A1A8A1B8A1C8A8FE692E1A3E8F5
:100EE000BFE38D839E83AF83B8876D817E818F81C1
:100EF000988520E030E040E853E40E941F02DC01C6
:100F0000CB0189879A87AB87BC878D899E89AA2761
:100F100097FDA095BA2FBC01CD010E942504DC01EC
:100F2000CB01BC01CD0129853A854B855C850E94AA
:100F3000F50388238CF58D899E89AA2797FDA095B6
:100F4000BA2FBC01CD010E9425049B01AC0169852B
:100F50007A858B859C850E94C101DC01CB01BC0197
:100F6000CD012D813E814F8158850E941903DC01FE
:100F7000CB01BC01CD010E948304DC01CB0189833C
:100F80009A83AB83BC8381E090E0A0E0B0E08D87E2
:100F90009E87AF87B88B9DC08D899E897C01002775
:100FA000F7FC0095102F69857A858B859C850E94BA
:100FB0008304DC01CB01E816F9060A071B0769F474
:100FC00019821A821B821C8281E090E0A0E0B0E0CE
:100FD0008D879E87AF87B88B7CC08D899E89AA2715
:100FE00097FDA095BA2FBC01CD010E942504DC011C
:100FF000CB01BC01CD0129853A854B855C850E94DA
:101000001903DC01CB01BC01CD010E948C0DDC0178
:10101000CB01BC01CD010E944900DC01CB018D87D1
:101020009E87AF87B88B8D899E89AA2797FDA0954B
:10103000BA2FBC01CD010E942504DC01CB01BC010B
:10104000CD012D813E814F8158850E941903DC011D
:10105000CB017C018D016D857E858F8598890E94ED
:10106000D7049B01AC01C801B7010E941903DC0140
:10107000CB019C01AD0160E070E080E893E40E9448
:10108000C101DC01CB01BC01CD010E948304DC0164
:10109000CB0189839A83AB83BC831BC0E8E5F0E076
:1010A0008081882F90E0817090700097B9F3A8E557
:1010B000B0E0E8E5F0E0808181608C9389899A89CD
:1010C000AB89BC890196A11DB11D898B9A8BAB8B15
:1010D000BC8B29893A894B895C898D859E85AF8532
:1010E000B889281739074A075B07C0F2198A1A8A94
:1010F0001B8A1C8A66960FB6F894DEBF0FBECDBF62
:10110000CF91DF911F910F91FF90EF900895DF93A2
:10111000CF93CDB7DEB77894A5E5B0E0E5E5F0E094
:10112000808183608C93ABE5B0E0EBE5F0E08081FB
:1011300080648C93CF91DF910895DF93CF9300D09B
:1011400000D00F92CDB7DEB789836A834B83898144
:10115000282F30E03D832C838C819D818130910547
:1011600009F443C02C813D81223031052CF48C815F
:101170009D81009771F0BCC02C813D8122303105EA
:1011800009F45FC08C819D818330910509F485C08D
:10119000AFC08B818130A1F4AAE3B0E0EAE3F0E0D4
:1011A0008081482F8A81282F30E081E090E0022E54
:1011B00002C0880F991F0A94E2F7842B8C9398C081
:1011C000AAE3B0E0EAE3F0E08081482F8A81282F8B
:1011D00030E081E090E0022E02C0880F991F0A944F
:1011E000E2F7809584238C9383C08B818130A1F4B6
:1011F000A7E3B0E0E7E3F0E08081482F8A81282F61
:1012000030E081E090E0022E02C0880F991F0A941E
:10121000E2F7842B8C936CC0A7E3B0E0E7E3F0E047
:101220008081482F8A81282F30E081E090E0022ED3
:1012300002C0880F991F0A94E2F7809584238C934B
:1012400057C08B818130A1F4A4E3B0E0E4E3F0E087
:101250008081482F8A81282F30E081E090E0022EA3
:1012600002C0880F991F0A94E2F7842B8C9340C028
:10127000A4E3B0E0E4E3F0E08081482F8A81282FE6
:1012800030E081E090E0022E02C0880F991F0A949E
:10129000E2F7809584238C932BC08B818130A1F45D
:1012A000A1E3B0E0E1E3F0E08081482F8A81282FBC
:1012B00030E081E090E0022E02C0880F991F0A946E
:1012C000E2F7842B8C9314C0A1E3B0E0E1E3F0E0FB
:1012D0008081482F8A81282F30E081E090E0022E23
:1012E00002C0880F991F0A94E2F7809584238C939B
:1012F0000F900F900F900F900F90CF91DF91089566
:10130000DF93CF9300D000D00F92CDB7DEB78983A3
:101310006A834B838981282F30E03D832C838C8125
:101320009D818130910509F443C02C813D8122309B
:1013300031052CF48C819D81009771F0BCC02C810B
:101340003D812230310509F45FC08C819D8183305D
:10135000910509F485C0AFC08B818130A1F4ABE366
:10136000B0E0EBE3F0E08081482F8A81282F30E065
:1013700081E090E0022E02C0880F991F0A94E2F7E4
:10138000842B8C9398C0ABE3B0E0EBE3F0E080817A
:10139000482F8A81282F30E081E090E0022E02C0A1
:1013A000880F991F0A94E2F7809584238C9383C059
:1013B0008B818130A1F4A8E3B0E0E8E3F0E0808124
:1013C000482F8A81282F30E081E090E0022E02C071
:1013D000880F991F0A94E2F7842B8C936CC0A8E3C2
:1013E000B0E0E8E3F0E08081482F8A81282F30E0E8
:1013F00081E090E0022E02C0880F991F0A94E2F764
:10140000809584238C9357C08B818130A1F4A5E310
:10141000B0E0E5E3F0E08081482F8A81282F30E0BA
:1014200081E090E0022E02C0880F991F0A94E2F733
:10143000842B8C9340C0A5E3B0E0E5E3F0E080812D
:10144000482F8A81282F30E081E090E0022E02C0F0
:10145000880F991F0A94E2F7809584238C932BC000
:101460008B818130A1F4A2E3B0E0E2E3F0E080817F
:10147000482F8A81282F30E081E090E0022E02C0C0
:10148000880F991F0A94E2F7842B8C9314C0A2E36F
:10149000B0E0E2E3F0E08081482F8A81282F30E03D
:1014A00081E090E0022E02C0880F991F0A94E2F7B3
:1014B000809584238C930F900F900F900F900F9036
:1014C000CF91DF910895DF93CF9300D000D000D06B
:1014D000CDB7DEB789836A835C834B838981282FEC
:1014E00030E03E832D834D815E8141305105A1F175
:1014F0008D819E818230910534F42D813E812115AC
:10150000310571F07CC04D815E814230510509F496
:101510003FC08D819E818330910509F455C06FC015
:10152000E9E3F0E08081282F30E08A81882F90E085
:10153000A90102C0559547958A95E2F7CA018170C5
:101540009070882329F0EB81FC8181E0808357C073
:10155000EB81FC81108253C0E6E3F0E08081282F0C
:1015600030E08A81882F90E0A90102C05595479507
:101570008A95E2F7CA0181709070882329F0EB8187
:10158000FC8181E080833BC0EB81FC81108237C00D
:10159000E3E3F0E08081282F30E08A81882F90E01B
:1015A000A90102C0559547958A95E2F7CA01817055
:1015B0009070882329F0EB81FC8181E080831FC03B
:1015C000EB81FC8110821BC0E0E3F0E08081282FDA
:1015D00030E08A81882F90E0A90102C05595479597
:1015E0008A95E2F7CA0181709070882329F0EB8117
:1015F000FC8181E0808303C0EB81FC811082269610
:101600000FB6F894DEBF0FBECDBFCF91DF91089526
:10161000DF93CF9300D000D0CDB7DEB789836A8344
:101620008981282F30E03C832B838B819C81813002
:10163000910549F12B813C81223031052CF48B81BD
:101640009C81009761F05AC02B813C81223031058A
:1016500071F18B819C8183309105E9F14FC0ABE33F
:10166000B0E0EBE3F0E08081482F8A81282F30E062
:1016700081E090E0022E02C0880F991F0A94E2F7E1
:1016800084278C933BC0A8E3B0E0E8E3F0E08081DE
:10169000482F8A81282F30E081E090E0022E02C09E
:1016A000880F991F0A94E2F784278C9327C0A5E33B
:1016B000B0E0E5E3F0E08081482F8A81282F30E018
:1016C00081E090E0022E02C0880F991F0A94E2F791
:1016D00084278C9313C0A2E3B0E0E2E3F0E08081C2
:1016E000482F8A81282F30E081E090E0022E02C04E
:1016F000880F991F0A94E2F784278C930F900F901C
:101700000F900F90CF91DF910895DF93CF9300D08A
:10171000CDB7DEB789836A8389816A8141E00E94FF
:101720009D080F900F90CF91DF910895DF93CF9395
:1017300000D0CDB7DEB789836A8389816A8141E0B1
:101740000E9480090F900F90CF91DF910895DF9351
:10175000CF9300D0CDB7DEB789836A8389816A8150
:1017600040E00E9480090F900F90CF91DF91089583
:10177000DF93CF9300D0CDB7DEB789836A838981A9
:101780006A810E94080B0F900F90CF91DF9108950E
:10179000DF93CF9300D0CDB7DEB789836A83898189
:1017A0006A8140E00E949D080F900F90CF91DF91D9
:1017B0000895DF93CF9300D000D0CDB7DEB78983F3
:1017C0006A835C834B832B813C8189816A81A90177
:1017D0000E94630A0F900F900F900F90CF91DF91AE
:1017E0000895DF93CF93CDB7DEB780E060E00E942D
:1017F000850B80E061E00E94850B80E062E00E9442
:10180000850B81E060E00E94850B81E061E00E9431
:10181000850B81E062E00E94850B83E062E00E941C
:10182000C80B0E9445070E948708CF91DF91089559
:10183000DF93CF93CDB7DEB780E060E00E94960BD8
:1018400081E062E00E94960B88E893E10E945907CC
:1018500080E060E00E94A70B81E062E00E94A70B9D
:101860000E945B0C80E061E00E94A70B81E061E0D8
:101870000E94A70B80E062E00E94960B81E060E08E
:101880000E94960B88E893E10E94590780E062E08D
:101890000E94A70B81E060E00E94A70B0E945B0CF6
:1018A00080E061E00E94A70B81E061E00E94A70B4D
:1018B000CF91DF910895DF93CF93CDB7DEB781E06D
:1018C0008093680180E061E00E94B80B81E061E0F4
:1018D0000E94B80B84EF91E00E94590780E061E01C
:1018E0000E94B80B81E061E00E94B80B84EF91E0A8
:1018F0000E94590780E061E00E94B80B81E061E03E
:101900000E94B80B88EE93E00E94590780E061E0E6
:101910000E94B80B81E061E00E94B80B84EF91E077
:101920000E94590780E061E00E94B80B81E061E00D
:101930000E94B80B84EF91E00E94590780E061E0BB
:101940000E94B80B81E061E00E94B80B88EE93E042
:101950000E94590780E061E00E94B80B81E061E0DD
:101960000E94B80B84EF91E00E94590780E061E08B
:101970000E94B80B81E061E00E94B80B84EF91E017
:101980000E94590710926801CF91DF910895DF936B
:10199000CF93CDB7DEB7E9E3F0E08081882F90E008
:1019A00084709070009769F080E062E00E94960B6E
:1019B00081E060E00E94960B88E893E10E9459075D
:1019C0002FC0E9E3F0E08081882F90E08170907073
:1019D000882321F480916801813011F580E060E076
:1019E0000E94A70B81E062E00E94960B0E945B0CB4
:1019F00080E061E00E94A70B81E061E00E94A70BFC
:101A000081E062E00E94A70B80E062E00E94960BFA
:101A100081E060E00E94960B88E893E10E945907FC
:101A200080E062E00E94A70B0E945B0C80E061E016
:101A30000E94A70B81E061E00E94A70BE8E3F0E0C1
:101A4000808160E00E94A70B80E060E00E94960B1E
:101A500081E062E00E94960B88E893E10E945907BA
:101A600080E060E00E94A70B81E062E00E94A70B8B
:101A7000CF91DF910895DF93CF9300D000D0CDB701
:101A8000DEB79A8389830E94C70C0F900F900F9046
:101A90000F90CF91DF910895DF93CF93CDB7DEB74D
:101AA0000E94F10B0E94180CFDCF2F923F924F9293
:101AB0005F926F927F928F929F92AF92BF92CF92DE
:101AC000DF92EF92FF920F931F93CF93DF93CDB7E7
:101AD000DEB7CA1BDB0B0FB6F894DEBF0FBECDBF5F
:101AE00009942A88398848885F846E847D848C8430
:101AF0009B84AA84B984C884DF80EE80FD800C8139
:101B00001B81AA81B981CE0FD11D0FB6F894DEBF1B
:101B10000FBECDBFED0108953BD080F09F3740F45C
:101B200091110EF44DC060E070E080E89FE30895ED
:101B300026F01B16611D711D811D01C01BC088236D
:101B400071F4772321F09850872B762F07C06623F6
:101B500011F499270DC09051862B70E060E02AF0B7
:101B60009A95660F771F881FDAF7880F96958795E5
:101B700097F908959F3F31F0915020F4879577951C
:101B80006795B795880F911D9695879597F9089554
:101B900025D0A0F0BEE7B91788F4BB279F3860F4C2
:101BA0001616B11D672F782F8827985FF7CF869577
:101BB00077956795B11D93959639C8F30895E89484
:101BC000BB2766277727CB0197F9089557FD9058D3
:101BD000440F551F59F05F3F71F04795880F97FBF1
:101BE000991F61F09F3F79F08795089512161306AB
:101BF0001406551FF2CF4695F1DF08C016161706DA
:101C00001806991FF1CF869571056105089408950E
:041C1000F894FFCF76
:101C140000000000000000000001020203030303AF
:101C24000404040404040404050505050505050568
:101C34000505050505050505060606060606060648
:101C44000606060606060606060606060606060630
:101C54000606060606060606070707070707070718
:101C64000707070707070707070707070707070700
:101C740007070707070707070707070707070707F0
:101C840007070707070707070707070707070707E0
:101C940007070707070707070808080808080808C8
:101CA40008080808080808080808080808080808B0
:101CB40008080808080808080808080808080808A0
:101CC4000808080808080808080808080808080890
:101CD4000808080808080808080808080808080880
:101CE4000808080808080808080808080808080870
:101CF4000808080808080808080808080808080860
:101D0400080808080808080808080808080808084F
:081D1400080808080808080887
:00000001FF
